{
  "contractName": "Bets",
  "abi": [
    {
      "inputs": [
        {
          "internalType": "uint256",
          "name": "",
          "type": "uint256"
        }
      ],
      "name": "placed_bets",
      "outputs": [
        {
          "internalType": "uint256",
          "name": "bet_id",
          "type": "uint256"
        },
        {
          "internalType": "string",
          "name": "bet_name",
          "type": "string"
        },
        {
          "internalType": "address",
          "name": "player1",
          "type": "address"
        },
        {
          "internalType": "address",
          "name": "player2",
          "type": "address"
        },
        {
          "internalType": "bool",
          "name": "bet_status",
          "type": "bool"
        },
        {
          "internalType": "string",
          "name": "result",
          "type": "string"
        }
      ],
      "stateMutability": "view",
      "type": "function",
      "constant": true
    },
    {
      "inputs": [
        {
          "internalType": "string",
          "name": "_bet_name",
          "type": "string"
        },
        {
          "internalType": "address",
          "name": "_player1",
          "type": "address"
        },
        {
          "internalType": "address",
          "name": "_player2",
          "type": "address"
        }
      ],
      "name": "placeBet",
      "outputs": [],
      "stateMutability": "nonpayable",
      "type": "function"
    },
    {
      "inputs": [
        {
          "internalType": "uint256",
          "name": "_bet_id",
          "type": "uint256"
        }
      ],
      "name": "getPlacedBet",
      "outputs": [
        {
          "components": [
            {
              "internalType": "uint256",
              "name": "bet_id",
              "type": "uint256"
            },
            {
              "internalType": "string",
              "name": "bet_name",
              "type": "string"
            },
            {
              "internalType": "address",
              "name": "player1",
              "type": "address"
            },
            {
              "internalType": "address",
              "name": "player2",
              "type": "address"
            },
            {
              "internalType": "bool",
              "name": "bet_status",
              "type": "bool"
            },
            {
              "internalType": "string",
              "name": "result",
              "type": "string"
            }
          ],
          "internalType": "struct Bets.Bet",
          "name": "",
          "type": "tuple"
        }
      ],
      "stateMutability": "view",
      "type": "function",
      "constant": true
    }
  ],
  "bytecode": "0x608060405234801561001057600080fd5b50610d98806100206000396000f3fe608060405234801561001057600080fd5b50600436106100415760003560e01c806305cfec5b146100465780633ef263fb1461007b5780635f8948ea146100ab575b600080fd5b610060600480360381019061005b91906107c1565b6100c7565b604051610072969594939291906108f2565b60405180910390f35b610095600480360381019061009091906107c1565b610270565b6040516100a29190610a68565b60405180910390f35b6100c560048036038101906100c09190610beb565b6104a1565b005b600081815481106100d757600080fd5b906000526020600020906005020160009150905080600001549080600101805461010090610c89565b80601f016020809104026020016040519081016040528092919081815260200182805461012c90610c89565b80156101795780601f1061014e57610100808354040283529160200191610179565b820191906000526020600020905b81548152906001019060200180831161015c57829003601f168201915b5050505050908060020160009054906101000a900473ffffffffffffffffffffffffffffffffffffffff16908060030160009054906101000a900473ffffffffffffffffffffffffffffffffffffffff16908060030160149054906101000a900460ff16908060040180546101ed90610c89565b80601f016020809104026020016040519081016040528092919081815260200182805461021990610c89565b80156102665780601f1061023b57610100808354040283529160200191610266565b820191906000526020600020905b81548152906001019060200180831161024957829003601f168201915b5050505050905086565b610278610670565b6000828154811061028c5761028b610cbb565b5b90600052602060002090600502016040518060c0016040529081600082015481526020016001820180546102bf90610c89565b80601f01602080910402602001604051908101604052809291908181526020018280546102eb90610c89565b80156103385780601f1061030d57610100808354040283529160200191610338565b820191906000526020600020905b81548152906001019060200180831161031b57829003601f168201915b505050505081526020016002820160009054906101000a900473ffffffffffffffffffffffffffffffffffffffff1673ffffffffffffffffffffffffffffffffffffffff1673ffffffffffffffffffffffffffffffffffffffff1681526020016003820160009054906101000a900473ffffffffffffffffffffffffffffffffffffffff1673ffffffffffffffffffffffffffffffffffffffff1673ffffffffffffffffffffffffffffffffffffffff1681526020016003820160149054906101000a900460ff1615151515815260200160048201805461041890610c89565b80601f016020809104026020016040519081016040528092919081815260200182805461044490610c89565b80156104915780601f1061046657610100808354040283529160200191610491565b820191906000526020600020905b81548152906001019060200180831161047457829003601f168201915b5050505050815250509050919050565b600160008154809291906104b490610d19565b919050555060006040518060c0016040528060015481526020018581526020018473ffffffffffffffffffffffffffffffffffffffff1681526020018373ffffffffffffffffffffffffffffffffffffffff1681526020016000151581526020016040518060400160405280600381526020017f4e696c0000000000000000000000000000000000000000000000000000000000815250815250908060018154018082558091505060019003906000526020600020906005020160009091909190915060008201518160000155602082015181600101908051906020019061059d9291906106d4565b5060408201518160020160006101000a81548173ffffffffffffffffffffffffffffffffffffffff021916908373ffffffffffffffffffffffffffffffffffffffff16021790555060608201518160030160006101000a81548173ffffffffffffffffffffffffffffffffffffffff021916908373ffffffffffffffffffffffffffffffffffffffff16021790555060808201518160030160146101000a81548160ff02191690831515021790555060a08201518160040190805190602001906106689291906106d4565b505050505050565b6040518060c001604052806000815260200160608152602001600073ffffffffffffffffffffffffffffffffffffffff168152602001600073ffffffffffffffffffffffffffffffffffffffff168152602001600015158152602001606081525090565b8280546106e090610c89565b90600052602060002090601f0160209004810192826107025760008555610749565b82601f1061071b57805160ff1916838001178555610749565b82800160010185558215610749579182015b8281111561074857825182559160200191906001019061072d565b5b509050610756919061075a565b5090565b5b8082111561077357600081600090555060010161075b565b5090565b6000604051905090565b600080fd5b600080fd5b6000819050919050565b61079e8161078b565b81146107a957600080fd5b50565b6000813590506107bb81610795565b92915050565b6000602082840312156107d7576107d6610781565b5b60006107e5848285016107ac565b91505092915050565b6107f78161078b565b82525050565b600081519050919050565b600082825260208201905092915050565b60005b8381101561083757808201518184015260208101905061081c565b83811115610846576000848401525b50505050565b6000601f19601f8301169050919050565b6000610868826107fd565b6108728185610808565b9350610882818560208601610819565b61088b8161084c565b840191505092915050565b600073ffffffffffffffffffffffffffffffffffffffff82169050919050565b60006108c182610896565b9050919050565b6108d1816108b6565b82525050565b60008115159050919050565b6108ec816108d7565b82525050565b600060c08201905061090760008301896107ee565b8181036020830152610919818861085d565b905061092860408301876108c8565b61093560608301866108c8565b61094260808301856108e3565b81810360a0830152610954818461085d565b9050979650505050505050565b61096a8161078b565b82525050565b600082825260208201905092915050565b600061098c826107fd565b6109968185610970565b93506109a6818560208601610819565b6109af8161084c565b840191505092915050565b6109c3816108b6565b82525050565b6109d2816108d7565b82525050565b600060c0830160008301516109f06000860182610961565b5060208301518482036020860152610a088282610981565b9150506040830151610a1d60408601826109ba565b506060830151610a3060608601826109ba565b506080830151610a4360808601826109c9565b5060a083015184820360a0860152610a5b8282610981565b9150508091505092915050565b60006020820190508181036000830152610a8281846109d8565b905092915050565b600080fd5b600080fd5b7f4e487b7100000000000000000000000000000000000000000000000000000000600052604160045260246000fd5b610acc8261084c565b810181811067ffffffffffffffff82111715610aeb57610aea610a94565b5b80604052505050565b6000610afe610777565b9050610b0a8282610ac3565b919050565b600067ffffffffffffffff821115610b2a57610b29610a94565b5b610b338261084c565b9050602081019050919050565b82818337600083830152505050565b6000610b62610b5d84610b0f565b610af4565b905082815260208101848484011115610b7e57610b7d610a8f565b5b610b89848285610b40565b509392505050565b600082601f830112610ba657610ba5610a8a565b5b8135610bb6848260208601610b4f565b91505092915050565b610bc8816108b6565b8114610bd357600080fd5b50565b600081359050610be581610bbf565b92915050565b600080600060608486031215610c0457610c03610781565b5b600084013567ffffffffffffffff811115610c2257610c21610786565b5b610c2e86828701610b91565b9350506020610c3f86828701610bd6565b9250506040610c5086828701610bd6565b9150509250925092565b7f4e487b7100000000000000000000000000000000000000000000000000000000600052602260045260246000fd5b60006002820490506001821680610ca157607f821691505b60208210811415610cb557610cb4610c5a565b5b50919050565b7f4e487b7100000000000000000000000000000000000000000000000000000000600052603260045260246000fd5b7f4e487b7100000000000000000000000000000000000000000000000000000000600052601160045260246000fd5b6000610d248261078b565b91507fffffffffffffffffffffffffffffffffffffffffffffffffffffffffffffffff821415610d5757610d56610cea565b5b60018201905091905056fea2646970667358221220eea678905e9a3d38d9d6c10f25307ff8cde1cd53d8496555ba3fcc98f37ec6c664736f6c634300080b0033",
  "immutableReferences": {},
  "source": "// SPDX-License-Identifier: MIT\npragma solidity >=0.4.22 <0.9.0;\n\ncontract Bets {\n\n  struct Bet {\n    uint bet_id;\n    string bet_name;\n    address player1;\n    /* uint player1_deposit;\n    string player1_prediction; */\n    address player2;\n    /* uint player1_deposit;\n    string player2_prediction; */\n    bool bet_status;\n    string result;\n  }\n\n  Bet[] public placed_bets;\n  uint bet_id_count;\n\n  function placeBet(string memory _bet_name, address _player1, address _player2) public {\n    /* increment bet id */\n    bet_id_count++;\n    placed_bets.push(Bet({ bet_id: bet_id_count, bet_name: _bet_name, player1: _player1, player2: _player2, bet_status: false, result: \"Nil\"  }));\n  }\n\n  function getPlacedBet(uint _bet_id) public view returns(Bet memory) {\n    return placed_bets[_bet_id];\n  }\n\n}\n",
  "sourcePath": "/Users/kiburei/Development/web3/wekelea/contracts/Bets.sol",
  "compiler": {
    "name": "solc",
    "version": "0.8.11+commit.d7f03943.Emscripten.clang"
  },
  "schemaVersion": "3.4.4",
  "updatedAt": "2022-02-28T13:07:25.996Z",
  "networkType": "ethereum",
  "devdoc": {
    "kind": "dev",
    "methods": {},
    "version": 1
  },
  "userdoc": {
    "kind": "user",
    "methods": {},
    "version": 1
  }
}