{
  "contractName": "Bets",
  "abi": [
    {
      "inputs": [],
      "stateMutability": "nonpayable",
      "type": "constructor"
    },
    {
      "inputs": [
        {
          "internalType": "uint256",
          "name": "",
          "type": "uint256"
        }
      ],
      "name": "placed_bets",
      "outputs": [
        {
          "internalType": "uint256",
          "name": "bet_id",
          "type": "uint256"
        },
        {
          "internalType": "string",
          "name": "bet_name",
          "type": "string"
        },
        {
          "internalType": "address",
          "name": "player1",
          "type": "address"
        },
        {
          "internalType": "address",
          "name": "player2",
          "type": "address"
        },
        {
          "internalType": "bool",
          "name": "bet_status",
          "type": "bool"
        },
        {
          "internalType": "string",
          "name": "result",
          "type": "string"
        }
      ],
      "stateMutability": "view",
      "type": "function"
    },
    {
      "inputs": [
        {
          "internalType": "string",
          "name": "_bet_name",
          "type": "string"
        },
        {
          "internalType": "address",
          "name": "_player1",
          "type": "address"
        },
        {
          "internalType": "address",
          "name": "_player2",
          "type": "address"
        }
      ],
      "name": "placeBet",
      "outputs": [],
      "stateMutability": "nonpayable",
      "type": "function"
    },
    {
      "inputs": [
        {
          "internalType": "uint256",
          "name": "_bet_id",
          "type": "uint256"
        }
      ],
      "name": "getPlacedBet",
      "outputs": [
        {
          "components": [
            {
              "internalType": "uint256",
              "name": "bet_id",
              "type": "uint256"
            },
            {
              "internalType": "string",
              "name": "bet_name",
              "type": "string"
            },
            {
              "internalType": "address",
              "name": "player1",
              "type": "address"
            },
            {
              "internalType": "address",
              "name": "player2",
              "type": "address"
            },
            {
              "internalType": "bool",
              "name": "bet_status",
              "type": "bool"
            },
            {
              "internalType": "string",
              "name": "result",
              "type": "string"
            }
          ],
          "internalType": "struct Bets.Bet",
          "name": "",
          "type": "tuple"
        }
      ],
      "stateMutability": "view",
      "type": "function"
    },
    {
      "inputs": [
        {
          "internalType": "uint256",
          "name": "_wager",
          "type": "uint256"
        },
        {
          "internalType": "uint256",
          "name": "_bet_id",
          "type": "uint256"
        }
      ],
      "name": "placeEqualWager",
      "outputs": [
        {
          "internalType": "string",
          "name": "",
          "type": "string"
        }
      ],
      "stateMutability": "view",
      "type": "function"
    },
    {
      "inputs": [
        {
          "internalType": "address",
          "name": "_addr",
          "type": "address"
        }
      ],
      "name": "getWalletBalance",
      "outputs": [
        {
          "internalType": "uint256",
          "name": "",
          "type": "uint256"
        }
      ],
      "stateMutability": "view",
      "type": "function"
    }
  ],
  "bytecode": "0x608060405234801561001057600080fd5b50600060405161001f90610044565b604051809103906000f08015801561003b573d6000803e3d6000fd5b50905050610051565b610f0180610ffb83390190565b610f9b806100606000396000f3fe608060405234801561001057600080fd5b50600436106100575760003560e01c806305cfec5b1461005c5780633ef263fb1461009157806341015d32146100c15780635f8948ea146100f1578063ed8ec1941461010d575b600080fd5b6100766004803603810190610071919061088c565b61013d565b604051610088969594939291906109bd565b60405180910390f35b6100ab60048036038101906100a6919061088c565b6102e6565b6040516100b89190610b33565b60405180910390f35b6100db60048036038101906100d69190610b55565b610517565b6040516100e89190610b95565b60405180910390f35b61010b60048036038101906101069190610d18565b610560565b005b61012760048036038101906101229190610d87565b61072f565b6040516101349190610db4565b60405180910390f35b6000818154811061014d57600080fd5b906000526020600020906005020160009150905080600001549080600101805461017690610dfe565b80601f01602080910402602001604051908101604052809291908181526020018280546101a290610dfe565b80156101ef5780601f106101c4576101008083540402835291602001916101ef565b820191906000526020600020905b8154815290600101906020018083116101d257829003601f168201915b5050505050908060020160009054906101000a900473ffffffffffffffffffffffffffffffffffffffff16908060030160009054906101000a900473ffffffffffffffffffffffffffffffffffffffff16908060030160149054906101000a900460ff169080600401805461026390610dfe565b80601f016020809104026020016040519081016040528092919081815260200182805461028f90610dfe565b80156102dc5780601f106102b1576101008083540402835291602001916102dc565b820191906000526020600020905b8154815290600101906020018083116102bf57829003601f168201915b5050505050905086565b6102ee61073b565b6000828154811061030257610301610e30565b5b90600052602060002090600502016040518060c00160405290816000820154815260200160018201805461033590610dfe565b80601f016020809104026020016040519081016040528092919081815260200182805461036190610dfe565b80156103ae5780601f10610383576101008083540402835291602001916103ae565b820191906000526020600020905b81548152906001019060200180831161039157829003601f168201915b505050505081526020016002820160009054906101000a900473ffffffffffffffffffffffffffffffffffffffff1673ffffffffffffffffffffffffffffffffffffffff1673ffffffffffffffffffffffffffffffffffffffff1681526020016003820160009054906101000a900473ffffffffffffffffffffffffffffffffffffffff1673ffffffffffffffffffffffffffffffffffffffff1673ffffffffffffffffffffffffffffffffffffffff1681526020016003820160149054906101000a900460ff1615151515815260200160048201805461048e90610dfe565b80601f01602080910402602001604051908101604052809291908181526020018280546104ba90610dfe565b80156105075780601f106104dc57610100808354040283529160200191610507565b820191906000526020600020905b8154815290600101906020018083116104ea57829003601f168201915b5050505050815250509050919050565b60606000610524836102e6565b905060006002856105359190610e8e565b905060006040518060600160405280602e8152602001610f38602e9139905080935050505092915050565b6001600081548092919061057390610eee565b919050555060006040518060c0016040528060015481526020018581526020018473ffffffffffffffffffffffffffffffffffffffff1681526020018373ffffffffffffffffffffffffffffffffffffffff1681526020016000151581526020016040518060400160405280600381526020017f4e696c0000000000000000000000000000000000000000000000000000000000815250815250908060018154018082558091505060019003906000526020600020906005020160009091909190915060008201518160000155602082015181600101908051906020019061065c92919061079f565b5060408201518160020160006101000a81548173ffffffffffffffffffffffffffffffffffffffff021916908373ffffffffffffffffffffffffffffffffffffffff16021790555060608201518160030160006101000a81548173ffffffffffffffffffffffffffffffffffffffff021916908373ffffffffffffffffffffffffffffffffffffffff16021790555060808201518160030160146101000a81548160ff02191690831515021790555060a082015181600401908051906020019061072792919061079f565b505050505050565b60008047905050919050565b6040518060c001604052806000815260200160608152602001600073ffffffffffffffffffffffffffffffffffffffff168152602001600073ffffffffffffffffffffffffffffffffffffffff168152602001600015158152602001606081525090565b8280546107ab90610dfe565b90600052602060002090601f0160209004810192826107cd5760008555610814565b82601f106107e657805160ff1916838001178555610814565b82800160010185558215610814579182015b828111156108135782518255916020019190600101906107f8565b5b5090506108219190610825565b5090565b5b8082111561083e576000816000905550600101610826565b5090565b6000604051905090565b600080fd5b600080fd5b6000819050919050565b61086981610856565b811461087457600080fd5b50565b60008135905061088681610860565b92915050565b6000602082840312156108a2576108a161084c565b5b60006108b084828501610877565b91505092915050565b6108c281610856565b82525050565b600081519050919050565b600082825260208201905092915050565b60005b838110156109025780820151818401526020810190506108e7565b83811115610911576000848401525b50505050565b6000601f19601f8301169050919050565b6000610933826108c8565b61093d81856108d3565b935061094d8185602086016108e4565b61095681610917565b840191505092915050565b600073ffffffffffffffffffffffffffffffffffffffff82169050919050565b600061098c82610961565b9050919050565b61099c81610981565b82525050565b60008115159050919050565b6109b7816109a2565b82525050565b600060c0820190506109d260008301896108b9565b81810360208301526109e48188610928565b90506109f36040830187610993565b610a006060830186610993565b610a0d60808301856109ae565b81810360a0830152610a1f8184610928565b9050979650505050505050565b610a3581610856565b82525050565b600082825260208201905092915050565b6000610a57826108c8565b610a618185610a3b565b9350610a718185602086016108e4565b610a7a81610917565b840191505092915050565b610a8e81610981565b82525050565b610a9d816109a2565b82525050565b600060c083016000830151610abb6000860182610a2c565b5060208301518482036020860152610ad38282610a4c565b9150506040830151610ae86040860182610a85565b506060830151610afb6060860182610a85565b506080830151610b0e6080860182610a94565b5060a083015184820360a0860152610b268282610a4c565b9150508091505092915050565b60006020820190508181036000830152610b4d8184610aa3565b905092915050565b60008060408385031215610b6c57610b6b61084c565b5b6000610b7a85828601610877565b9250506020610b8b85828601610877565b9150509250929050565b60006020820190508181036000830152610baf8184610928565b905092915050565b600080fd5b600080fd5b7f4e487b7100000000000000000000000000000000000000000000000000000000600052604160045260246000fd5b610bf982610917565b810181811067ffffffffffffffff82111715610c1857610c17610bc1565b5b80604052505050565b6000610c2b610842565b9050610c378282610bf0565b919050565b600067ffffffffffffffff821115610c5757610c56610bc1565b5b610c6082610917565b9050602081019050919050565b82818337600083830152505050565b6000610c8f610c8a84610c3c565b610c21565b905082815260208101848484011115610cab57610caa610bbc565b5b610cb6848285610c6d565b509392505050565b600082601f830112610cd357610cd2610bb7565b5b8135610ce3848260208601610c7c565b91505092915050565b610cf581610981565b8114610d0057600080fd5b50565b600081359050610d1281610cec565b92915050565b600080600060608486031215610d3157610d3061084c565b5b600084013567ffffffffffffffff811115610d4f57610d4e610851565b5b610d5b86828701610cbe565b9350506020610d6c86828701610d03565b9250506040610d7d86828701610d03565b9150509250925092565b600060208284031215610d9d57610d9c61084c565b5b6000610dab84828501610d03565b91505092915050565b6000602082019050610dc960008301846108b9565b92915050565b7f4e487b7100000000000000000000000000000000000000000000000000000000600052602260045260246000fd5b60006002820490506001821680610e1657607f821691505b60208210811415610e2a57610e29610dcf565b5b50919050565b7f4e487b7100000000000000000000000000000000000000000000000000000000600052603260045260246000fd5b7f4e487b7100000000000000000000000000000000000000000000000000000000600052601260045260246000fd5b6000610e9982610856565b9150610ea483610856565b925082610eb457610eb3610e5f565b5b828206905092915050565b7f4e487b7100000000000000000000000000000000000000000000000000000000600052601160045260246000fd5b6000610ef982610856565b91507fffffffffffffffffffffffffffffffffffffffffffffffffffffffffffffffff821415610f2c57610f2b610ebf565b5b60018201905091905056fe42657420706c61636564207375636365737366756c6c792c206561636820706c6179657220776167657220697320a26469706673582212201007ae9daecc07eab78f0dc9954de274ad742f7b80d25c80bde0da76a516aa3d64736f6c634300080b003360806040523480156200001157600080fd5b5060016040518060800160405280600081526020016040518060400160405280600981526020017f54686520486f757365000000000000000000000000000000000000000000000081525081526020016002808111156200007757620000766200021a565b5b81526020013073ffffffffffffffffffffffffffffffffffffffff168152509080600181540180825580915050600190039060005260206000209060030201600090919091909150600082015181600001556020820151816001019080519060200190620000e79291906200016a565b5060408201518160020160006101000a81548160ff021916908360028111156200011657620001156200021a565b5b021790555060608201518160020160016101000a81548173ffffffffffffffffffffffffffffffffffffffff021916908373ffffffffffffffffffffffffffffffffffffffff1602179055505050620002ae565b828054620001789062000278565b90600052602060002090601f0160209004810192826200019c5760008555620001e8565b82601f10620001b757805160ff1916838001178555620001e8565b82800160010185558215620001e8579182015b82811115620001e7578251825591602001919060010190620001ca565b5b509050620001f79190620001fb565b5090565b5b8082111562000216576000816000905550600101620001fc565b5090565b7f4e487b7100000000000000000000000000000000000000000000000000000000600052602160045260246000fd5b7f4e487b7100000000000000000000000000000000000000000000000000000000600052602260045260246000fd5b600060028204905060018216806200029157607f821691505b60208210811415620002a857620002a762000249565b5b50919050565b610c4380620002be6000396000f3fe608060405234801561001057600080fd5b506004361061004c5760003560e01c806339c058c4146100515780634903b20f14610081578063752d2ef7146100b4578063fdccd40d146100e4575b600080fd5b61006b60048036038101906100669190610638565b610100565b6040516100789190610674565b60405180910390f35b61009b60048036038101906100969190610638565b610138565b6040516100ab94939291906107e0565b60405180910390f35b6100ce60048036038101906100c99190610638565b61022d565b6040516100db9190610906565b60405180910390f35b6100fe60048036038101906100f99190610a89565b610396565b005b60008061010c8361022d565b90506000816060015173ffffffffffffffffffffffffffffffffffffffff163190508092505050919050565b6001818154811061014857600080fd5b906000526020600020906003020160009150905080600001549080600101805461017190610b27565b80601f016020809104026020016040519081016040528092919081815260200182805461019d90610b27565b80156101ea5780601f106101bf576101008083540402835291602001916101ea565b820191906000526020600020905b8154815290600101906020018083116101cd57829003601f168201915b5050505050908060020160009054906101000a900460ff16908060020160019054906101000a900473ffffffffffffffffffffffffffffffffffffffff16905084565b6102356104fb565b6001828154811061024957610248610b59565b5b90600052602060002090600302016040518060800160405290816000820154815260200160018201805461027c90610b27565b80601f01602080910402602001604051908101604052809291908181526020018280546102a890610b27565b80156102f55780601f106102ca576101008083540402835291602001916102f5565b820191906000526020600020905b8154815290600101906020018083116102d857829003601f168201915b505050505081526020016002820160009054906101000a900460ff16600281111561032357610322610728565b5b600281111561033557610334610728565b5b81526020016002820160019054906101000a900473ffffffffffffffffffffffffffffffffffffffff1673ffffffffffffffffffffffffffffffffffffffff1673ffffffffffffffffffffffffffffffffffffffff16815250509050919050565b816002808111156103aa576103a9610728565b5b10156103b557600080fd5b6001604051806080016040528060005481526020018581526020018460028111156103e3576103e2610728565b5b60028111156103f5576103f4610728565b5b81526020018373ffffffffffffffffffffffffffffffffffffffff16815250908060018154018082558091505060019003906000526020600020906003020160009091909190915060008201518160000155602082015181600101908051906020019061046392919061054b565b5060408201518160020160006101000a81548160ff0219169083600281111561048f5761048e610728565b5b021790555060608201518160020160016101000a81548173ffffffffffffffffffffffffffffffffffffffff021916908373ffffffffffffffffffffffffffffffffffffffff160217905550505060016000808282546104ef9190610bb7565b92505081905550505050565b604051806080016040528060008152602001606081526020016000600281111561052857610527610728565b5b8152602001600073ffffffffffffffffffffffffffffffffffffffff1681525090565b82805461055790610b27565b90600052602060002090601f01602090048101928261057957600085556105c0565b82601f1061059257805160ff19168380011785556105c0565b828001600101855582156105c0579182015b828111156105bf5782518255916020019190600101906105a4565b5b5090506105cd91906105d1565b5090565b5b808211156105ea5760008160009055506001016105d2565b5090565b6000604051905090565b600080fd5b600080fd5b6000819050919050565b61061581610602565b811461062057600080fd5b50565b6000813590506106328161060c565b92915050565b60006020828403121561064e5761064d6105f8565b5b600061065c84828501610623565b91505092915050565b61066e81610602565b82525050565b60006020820190506106896000830184610665565b92915050565b600081519050919050565b600082825260208201905092915050565b60005b838110156106c95780820151818401526020810190506106ae565b838111156106d8576000848401525b50505050565b6000601f19601f8301169050919050565b60006106fa8261068f565b610704818561069a565b93506107148185602086016106ab565b61071d816106de565b840191505092915050565b7f4e487b7100000000000000000000000000000000000000000000000000000000600052602160045260246000fd5b6003811061076857610767610728565b5b50565b600081905061077982610757565b919050565b60006107898261076b565b9050919050565b6107998161077e565b82525050565b600073ffffffffffffffffffffffffffffffffffffffff82169050919050565b60006107ca8261079f565b9050919050565b6107da816107bf565b82525050565b60006080820190506107f56000830187610665565b818103602083015261080781866106ef565b90506108166040830185610790565b61082360608301846107d1565b95945050505050565b61083581610602565b82525050565b600082825260208201905092915050565b60006108578261068f565b610861818561083b565b93506108718185602086016106ab565b61087a816106de565b840191505092915050565b61088e8161077e565b82525050565b61089d816107bf565b82525050565b60006080830160008301516108bb600086018261082c565b50602083015184820360208601526108d3828261084c565b91505060408301516108e86040860182610885565b5060608301516108fb6060860182610894565b508091505092915050565b6000602082019050818103600083015261092081846108a3565b905092915050565b600080fd5b600080fd5b7f4e487b7100000000000000000000000000000000000000000000000000000000600052604160045260246000fd5b61096a826106de565b810181811067ffffffffffffffff8211171561098957610988610932565b5b80604052505050565b600061099c6105ee565b90506109a88282610961565b919050565b600067ffffffffffffffff8211156109c8576109c7610932565b5b6109d1826106de565b9050602081019050919050565b82818337600083830152505050565b6000610a006109fb846109ad565b610992565b905082815260208101848484011115610a1c57610a1b61092d565b5b610a278482856109de565b509392505050565b600082601f830112610a4457610a43610928565b5b8135610a548482602086016109ed565b91505092915050565b610a66816107bf565b8114610a7157600080fd5b50565b600081359050610a8381610a5d565b92915050565b600080600060608486031215610aa257610aa16105f8565b5b600084013567ffffffffffffffff811115610ac057610abf6105fd565b5b610acc86828701610a2f565b9350506020610add86828701610623565b9250506040610aee86828701610a74565b9150509250925092565b7f4e487b7100000000000000000000000000000000000000000000000000000000600052602260045260246000fd5b60006002820490506001821680610b3f57607f821691505b60208210811415610b5357610b52610af8565b5b50919050565b7f4e487b7100000000000000000000000000000000000000000000000000000000600052603260045260246000fd5b7f4e487b7100000000000000000000000000000000000000000000000000000000600052601160045260246000fd5b6000610bc282610602565b9150610bcd83610602565b9250827fffffffffffffffffffffffffffffffffffffffffffffffffffffffffffffffff03821115610c0257610c01610b88565b5b82820190509291505056fea26469706673582212203d1f704f64ef7b3a504ba8eecdd9d266923418093c48a7f3eba52ad4f9665d3c64736f6c634300080b0033",
  "immutableReferences": {},
  "source": "// SPDX-License-Identifier: MIT\npragma solidity >=0.4.22 <0.9.0;\n\nimport \"./Users.sol\";\n\ncontract Bets {\n\n  constructor() public {\n    Users usersInstance = new Users();\n  }\n\n  struct Bet {\n    uint bet_id;\n    string bet_name;\n    address player1;\n    /* uint player1_deposit;\n    string player1_prediction; */\n    address player2;\n    /* uint player1_deposit;\n    string player2_prediction; */\n    bool bet_status;\n    string result;\n  }\n\n  Bet[] public placed_bets;\n  uint bet_id_count;\n\n  /* event Transfer(address _from, address  _to, uint256 _value);\n\n  function sendCoin(address receiver, uint amount) public returns(bool sufficient) {\n    if (balances[msg.sender] < amount) return false;\n    balances[msg.sender] -= amount;\n    balances[receiver] += amount;\n    emit Transfer(msg.sender, receiver, amount);\n    return true;\n  } */\n\n  function placeBet(string memory _bet_name, address _player1, address _player2) public {\n    /* increment bet id */\n    bet_id_count++;\n    placed_bets.push(Bet({ bet_id: bet_id_count, bet_name: _bet_name, player1: _player1, player2: _player2, bet_status: false, result: \"Nil\"  }));\n  }\n\n  function getPlacedBet(uint _bet_id) public view returns(Bet memory) {\n    return placed_bets[_bet_id];\n  }\n\n  function placeEqualWager(uint _wager, uint _bet_id) public view returns(string memory) {\n    /* check if participants have allowed balance plus commission */\n    Bet memory bet = getPlacedBet(_bet_id);\n    uint player_wager = _wager % 2;\n\n\n    string memory success = \"Bet placed successfully, each player wager is \";\n    return success;\n  }\n\n  function getWalletBalance(address _addr) public view returns(uint) {\n     uint balance = address(this).balance;\n  }\n\n\n}\n",
  "sourcePath": "/Users/kiburei/Development/web3/wekelea/contracts/Bets.sol",
  "compiler": {
    "name": "solc",
    "version": "0.8.11+commit.d7f03943.Emscripten.clang"
  },
  "schemaVersion": "3.4.4",
  "updatedAt": "2022-03-05T12:59:38.216Z",
  "devdoc": {
    "kind": "dev",
    "methods": {},
    "version": 1
  },
  "userdoc": {
    "kind": "user",
    "methods": {},
    "version": 1
  }
}