{
  "contractName": "Bets",
  "abi": [
    {
      "inputs": [],
      "stateMutability": "nonpayable",
      "type": "constructor"
    },
    {
      "anonymous": false,
      "inputs": [
        {
          "indexed": false,
          "internalType": "address",
          "name": "_from",
          "type": "address"
        },
        {
          "indexed": false,
          "internalType": "address",
          "name": "_to",
          "type": "address"
        },
        {
          "indexed": false,
          "internalType": "uint256",
          "name": "_value",
          "type": "uint256"
        }
      ],
      "name": "Transfer",
      "type": "event"
    },
    {
      "inputs": [
        {
          "internalType": "address",
          "name": "",
          "type": "address"
        }
      ],
      "name": "balances",
      "outputs": [
        {
          "internalType": "uint256",
          "name": "",
          "type": "uint256"
        }
      ],
      "stateMutability": "view",
      "type": "function",
      "constant": true
    },
    {
      "inputs": [
        {
          "internalType": "uint256",
          "name": "",
          "type": "uint256"
        }
      ],
      "name": "placed_bets",
      "outputs": [
        {
          "internalType": "uint256",
          "name": "bet_id",
          "type": "uint256"
        },
        {
          "internalType": "string",
          "name": "bet_name",
          "type": "string"
        },
        {
          "internalType": "address",
          "name": "player1",
          "type": "address"
        },
        {
          "internalType": "address",
          "name": "player2",
          "type": "address"
        },
        {
          "internalType": "bool",
          "name": "bet_status",
          "type": "bool"
        },
        {
          "internalType": "string",
          "name": "result",
          "type": "string"
        }
      ],
      "stateMutability": "view",
      "type": "function",
      "constant": true
    },
    {
      "inputs": [
        {
          "internalType": "address",
          "name": "receiver",
          "type": "address"
        },
        {
          "internalType": "uint256",
          "name": "amount",
          "type": "uint256"
        }
      ],
      "name": "sendCoin",
      "outputs": [
        {
          "internalType": "bool",
          "name": "sufficient",
          "type": "bool"
        }
      ],
      "stateMutability": "nonpayable",
      "type": "function"
    },
    {
      "inputs": [
        {
          "internalType": "string",
          "name": "_bet_name",
          "type": "string"
        },
        {
          "internalType": "address",
          "name": "_player1",
          "type": "address"
        },
        {
          "internalType": "address",
          "name": "_player2",
          "type": "address"
        }
      ],
      "name": "placeBet",
      "outputs": [],
      "stateMutability": "nonpayable",
      "type": "function"
    },
    {
      "inputs": [
        {
          "internalType": "uint256",
          "name": "_bet_id",
          "type": "uint256"
        }
      ],
      "name": "getPlacedBet",
      "outputs": [
        {
          "components": [
            {
              "internalType": "uint256",
              "name": "bet_id",
              "type": "uint256"
            },
            {
              "internalType": "string",
              "name": "bet_name",
              "type": "string"
            },
            {
              "internalType": "address",
              "name": "player1",
              "type": "address"
            },
            {
              "internalType": "address",
              "name": "player2",
              "type": "address"
            },
            {
              "internalType": "bool",
              "name": "bet_status",
              "type": "bool"
            },
            {
              "internalType": "string",
              "name": "result",
              "type": "string"
            }
          ],
          "internalType": "struct Bets.Bet",
          "name": "",
          "type": "tuple"
        }
      ],
      "stateMutability": "view",
      "type": "function",
      "constant": true
    },
    {
      "inputs": [
        {
          "internalType": "uint256",
          "name": "_wager",
          "type": "uint256"
        },
        {
          "internalType": "uint256",
          "name": "_bet_id",
          "type": "uint256"
        }
      ],
      "name": "placeEqualWager",
      "outputs": [
        {
          "internalType": "string",
          "name": "",
          "type": "string"
        }
      ],
      "stateMutability": "view",
      "type": "function",
      "constant": true
    },
    {
      "inputs": [
        {
          "internalType": "address",
          "name": "_addr",
          "type": "address"
        }
      ],
      "name": "getWalletBalance",
      "outputs": [
        {
          "internalType": "uint256",
          "name": "",
          "type": "uint256"
        }
      ],
      "stateMutability": "view",
      "type": "function",
      "constant": true
    }
  ],
  "bytecode": "0x608060405234801561001057600080fd5b506127106000803273ffffffffffffffffffffffffffffffffffffffff1673ffffffffffffffffffffffffffffffffffffffff16815260200190815260200160002081905550611296806100656000396000f3fe608060405234801561001057600080fd5b506004361061007d5760003560e01c806341015d321161005b57806341015d32146101175780635f8948ea1461014757806390b98a1114610163578063ed8ec194146101935761007d565b806305cfec5b1461008257806327e235e3146100b75780633ef263fb146100e7575b600080fd5b61009c60048036038101906100979190610a6b565b6101c3565b6040516100ae96959493929190610b9c565b60405180910390f35b6100d160048036038101906100cc9190610c37565b61036c565b6040516100de9190610c64565b60405180910390f35b61010160048036038101906100fc9190610a6b565b610384565b60405161010e9190610d86565b60405180910390f35b610131600480360381019061012c9190610da8565b6105b5565b60405161013e9190610de8565b60405180910390f35b610161600480360381019061015c9190610f3f565b6105fe565b005b61017d60048036038101906101789190610fae565b6107cd565b60405161018a9190610fee565b60405180910390f35b6101ad60048036038101906101a89190610c37565b61090e565b6040516101ba9190610c64565b60405180910390f35b600181815481106101d357600080fd5b90600052602060002090600502016000915090508060000154908060010180546101fc90611038565b80601f016020809104026020016040519081016040528092919081815260200182805461022890611038565b80156102755780601f1061024a57610100808354040283529160200191610275565b820191906000526020600020905b81548152906001019060200180831161025857829003601f168201915b5050505050908060020160009054906101000a900473ffffffffffffffffffffffffffffffffffffffff16908060030160009054906101000a900473ffffffffffffffffffffffffffffffffffffffff16908060030160149054906101000a900460ff16908060040180546102e990611038565b80601f016020809104026020016040519081016040528092919081815260200182805461031590611038565b80156103625780601f1061033757610100808354040283529160200191610362565b820191906000526020600020905b81548152906001019060200180831161034557829003601f168201915b5050505050905086565b60006020528060005260406000206000915090505481565b61038c61091a565b600182815481106103a05761039f61106a565b5b90600052602060002090600502016040518060c0016040529081600082015481526020016001820180546103d390611038565b80601f01602080910402602001604051908101604052809291908181526020018280546103ff90611038565b801561044c5780601f106104215761010080835404028352916020019161044c565b820191906000526020600020905b81548152906001019060200180831161042f57829003601f168201915b505050505081526020016002820160009054906101000a900473ffffffffffffffffffffffffffffffffffffffff1673ffffffffffffffffffffffffffffffffffffffff1673ffffffffffffffffffffffffffffffffffffffff1681526020016003820160009054906101000a900473ffffffffffffffffffffffffffffffffffffffff1673ffffffffffffffffffffffffffffffffffffffff1673ffffffffffffffffffffffffffffffffffffffff1681526020016003820160149054906101000a900460ff1615151515815260200160048201805461052c90611038565b80601f016020809104026020016040519081016040528092919081815260200182805461055890611038565b80156105a55780601f1061057a576101008083540402835291602001916105a5565b820191906000526020600020905b81548152906001019060200180831161058857829003601f168201915b5050505050815250509050919050565b606060006105c283610384565b905060006002856105d391906110c8565b905060006040518060600160405280602e8152602001611233602e9139905080935050505092915050565b6002600081548092919061061190611128565b919050555060016040518060c0016040528060025481526020018581526020018473ffffffffffffffffffffffffffffffffffffffff1681526020018373ffffffffffffffffffffffffffffffffffffffff1681526020016000151581526020016040518060400160405280600381526020017f4e696c000000000000000000000000000000000000000000000000000000000081525081525090806001815401808255809150506001900390600052602060002090600502016000909190919091506000820151816000015560208201518160010190805190602001906106fa92919061097e565b5060408201518160020160006101000a81548173ffffffffffffffffffffffffffffffffffffffff021916908373ffffffffffffffffffffffffffffffffffffffff16021790555060608201518160030160006101000a81548173ffffffffffffffffffffffffffffffffffffffff021916908373ffffffffffffffffffffffffffffffffffffffff16021790555060808201518160030160146101000a81548160ff02191690831515021790555060a08201518160040190805190602001906107c592919061097e565b505050505050565b6000816000803373ffffffffffffffffffffffffffffffffffffffff1673ffffffffffffffffffffffffffffffffffffffff16815260200190815260200160002054101561081e5760009050610908565b816000803373ffffffffffffffffffffffffffffffffffffffff1673ffffffffffffffffffffffffffffffffffffffff168152602001908152602001600020600082825461086c9190611171565b92505081905550816000808573ffffffffffffffffffffffffffffffffffffffff1673ffffffffffffffffffffffffffffffffffffffff16815260200190815260200160002060008282546108c191906111a5565b925050819055507fddf252ad1be2c89b69c2b068fc378daa952ba7f163c4a11628f55a4df523b3ef3384846040516108fb939291906111fb565b60405180910390a1600190505b92915050565b60008047905050919050565b6040518060c001604052806000815260200160608152602001600073ffffffffffffffffffffffffffffffffffffffff168152602001600073ffffffffffffffffffffffffffffffffffffffff168152602001600015158152602001606081525090565b82805461098a90611038565b90600052602060002090601f0160209004810192826109ac57600085556109f3565b82601f106109c557805160ff19168380011785556109f3565b828001600101855582156109f3579182015b828111156109f25782518255916020019190600101906109d7565b5b509050610a009190610a04565b5090565b5b80821115610a1d576000816000905550600101610a05565b5090565b6000604051905090565b600080fd5b600080fd5b6000819050919050565b610a4881610a35565b8114610a5357600080fd5b50565b600081359050610a6581610a3f565b92915050565b600060208284031215610a8157610a80610a2b565b5b6000610a8f84828501610a56565b91505092915050565b610aa181610a35565b82525050565b600081519050919050565b600082825260208201905092915050565b60005b83811015610ae1578082015181840152602081019050610ac6565b83811115610af0576000848401525b50505050565b6000601f19601f8301169050919050565b6000610b1282610aa7565b610b1c8185610ab2565b9350610b2c818560208601610ac3565b610b3581610af6565b840191505092915050565b600073ffffffffffffffffffffffffffffffffffffffff82169050919050565b6000610b6b82610b40565b9050919050565b610b7b81610b60565b82525050565b60008115159050919050565b610b9681610b81565b82525050565b600060c082019050610bb16000830189610a98565b8181036020830152610bc38188610b07565b9050610bd26040830187610b72565b610bdf6060830186610b72565b610bec6080830185610b8d565b81810360a0830152610bfe8184610b07565b9050979650505050505050565b610c1481610b60565b8114610c1f57600080fd5b50565b600081359050610c3181610c0b565b92915050565b600060208284031215610c4d57610c4c610a2b565b5b6000610c5b84828501610c22565b91505092915050565b6000602082019050610c796000830184610a98565b92915050565b610c8881610a35565b82525050565b600082825260208201905092915050565b6000610caa82610aa7565b610cb48185610c8e565b9350610cc4818560208601610ac3565b610ccd81610af6565b840191505092915050565b610ce181610b60565b82525050565b610cf081610b81565b82525050565b600060c083016000830151610d0e6000860182610c7f565b5060208301518482036020860152610d268282610c9f565b9150506040830151610d3b6040860182610cd8565b506060830151610d4e6060860182610cd8565b506080830151610d616080860182610ce7565b5060a083015184820360a0860152610d798282610c9f565b9150508091505092915050565b60006020820190508181036000830152610da08184610cf6565b905092915050565b60008060408385031215610dbf57610dbe610a2b565b5b6000610dcd85828601610a56565b9250506020610dde85828601610a56565b9150509250929050565b60006020820190508181036000830152610e028184610b07565b905092915050565b600080fd5b600080fd5b7f4e487b7100000000000000000000000000000000000000000000000000000000600052604160045260246000fd5b610e4c82610af6565b810181811067ffffffffffffffff82111715610e6b57610e6a610e14565b5b80604052505050565b6000610e7e610a21565b9050610e8a8282610e43565b919050565b600067ffffffffffffffff821115610eaa57610ea9610e14565b5b610eb382610af6565b9050602081019050919050565b82818337600083830152505050565b6000610ee2610edd84610e8f565b610e74565b905082815260208101848484011115610efe57610efd610e0f565b5b610f09848285610ec0565b509392505050565b600082601f830112610f2657610f25610e0a565b5b8135610f36848260208601610ecf565b91505092915050565b600080600060608486031215610f5857610f57610a2b565b5b600084013567ffffffffffffffff811115610f7657610f75610a30565b5b610f8286828701610f11565b9350506020610f9386828701610c22565b9250506040610fa486828701610c22565b9150509250925092565b60008060408385031215610fc557610fc4610a2b565b5b6000610fd385828601610c22565b9250506020610fe485828601610a56565b9150509250929050565b60006020820190506110036000830184610b8d565b92915050565b7f4e487b7100000000000000000000000000000000000000000000000000000000600052602260045260246000fd5b6000600282049050600182168061105057607f821691505b6020821081141561106457611063611009565b5b50919050565b7f4e487b7100000000000000000000000000000000000000000000000000000000600052603260045260246000fd5b7f4e487b7100000000000000000000000000000000000000000000000000000000600052601260045260246000fd5b60006110d382610a35565b91506110de83610a35565b9250826110ee576110ed611099565b5b828206905092915050565b7f4e487b7100000000000000000000000000000000000000000000000000000000600052601160045260246000fd5b600061113382610a35565b91507fffffffffffffffffffffffffffffffffffffffffffffffffffffffffffffffff821415611166576111656110f9565b5b600182019050919050565b600061117c82610a35565b915061118783610a35565b92508282101561119a576111996110f9565b5b828203905092915050565b60006111b082610a35565b91506111bb83610a35565b9250827fffffffffffffffffffffffffffffffffffffffffffffffffffffffffffffffff038211156111f0576111ef6110f9565b5b828201905092915050565b60006060820190506112106000830186610b72565b61121d6020830185610b72565b61122a6040830184610a98565b94935050505056fe42657420706c61636564207375636365737366756c6c792c206561636820706c6179657220776167657220697320a264697066735822122053f11abdf390a434f539991c73333578ddd3b66715af432c1036d863a1cc075c64736f6c634300080b0033",
  "immutableReferences": {},
  "source": "// SPDX-License-Identifier: MIT\npragma solidity >=0.4.22 <0.9.0;\n\ncontract Bets {\n  /* create mapping for addresses */\n  mapping (address => uint) public balances;\n\n  constructor() public {\n    balances[tx.origin] = 10000;\n  }\n\n\n  struct Bet {\n    uint bet_id;\n    string bet_name;\n    address player1;\n    /* uint player1_deposit;\n    string player1_prediction; */\n    address player2;\n    /* uint player1_deposit;\n    string player2_prediction; */\n    bool bet_status;\n    string result;\n  }\n\n  Bet[] public placed_bets;\n  uint bet_id_count;\n\n  event Transfer(address _from, address  _to, uint256 _value);\n\n  function sendCoin(address receiver, uint amount) public returns(bool sufficient) {\n    if (balances[msg.sender] < amount) return false;\n    balances[msg.sender] -= amount;\n    balances[receiver] += amount;\n    emit Transfer(msg.sender, receiver, amount);\n    return true;\n  }\n\n  function placeBet(string memory _bet_name, address _player1, address _player2) public {\n    /* increment bet id */\n    bet_id_count++;\n    placed_bets.push(Bet({ bet_id: bet_id_count, bet_name: _bet_name, player1: _player1, player2: _player2, bet_status: false, result: \"Nil\"  }));\n  }\n\n  function getPlacedBet(uint _bet_id) public view returns(Bet memory) {\n    return placed_bets[_bet_id];\n  }\n\n  function placeEqualWager(uint _wager, uint _bet_id) public view returns(string memory) {\n    /* check if participants have allowed balance plus commission */\n    Bet memory bet = getPlacedBet(_bet_id);\n    uint player_wager = _wager % 2;\n\n\n    string memory success = \"Bet placed successfully, each player wager is \";\n    return success;\n  }\n\n  function getWalletBalance(address _addr) public view returns(uint) {\n     uint balance = address(this).balance;\n  }\n\n\n}\n",
  "sourcePath": "/Users/kiburei/Development/web3/wekelea/contracts/Bets.sol",
  "compiler": {
    "name": "solc",
    "version": "0.8.11+commit.d7f03943.Emscripten.clang"
  },
  "schemaVersion": "3.4.4",
  "updatedAt": "2022-03-05T12:16:39.640Z",
  "networkType": "ethereum",
  "devdoc": {
    "kind": "dev",
    "methods": {},
    "version": 1
  },
  "userdoc": {
    "kind": "user",
    "methods": {},
    "version": 1
  }
}