{
  "contractName": "Users",
  "abi": [
    {
      "inputs": [],
      "stateMutability": "nonpayable",
      "type": "constructor"
    },
    {
      "inputs": [
        {
          "internalType": "uint256",
          "name": "g",
          "type": "uint256"
        }
      ],
      "name": "setGender",
      "outputs": [],
      "stateMutability": "nonpayable",
      "type": "function"
    }
  ],
  "bytecode": "0x608060405234801561001057600080fd5b50610132806100206000396000f3fe6080604052348015600f57600080fd5b506004361060285760003560e01c806346a4559b14602d575b600080fd5b60436004803603810190603f919060a5565b6045565b005b60008060006101000a81548160ff02191690836002811115606757606660cd565b5b021790555050565b600080fd5b6000819050919050565b6085816074565b8114608f57600080fd5b50565b600081359050609f81607e565b92915050565b60006020828403121560b85760b7606f565b5b600060c4848285016092565b91505092915050565b7f4e487b7100000000000000000000000000000000000000000000000000000000600052602160045260246000fdfea264697066735822122068d18b426b75527e4d844ee61a042e9e10dcbbf3b86cb40ed36276352478a03464736f6c634300080b0033",
  "immutableReferences": {},
  "source": "// SPDX-License-Identifier: MIT\npragma solidity >=0.4.22 <0.9.0;\n\ncontract Users {\n\n  enum Gender{HE, SHE, OTHER}\n  Gender gender;\n\n  function setGender(uint g) public {\n    gender = Gender.HE;\n  }\n\n  constructor() public {\n  }\n\n}\n",
  "sourcePath": "/Users/kiburei/Development/web3/wekelea/contracts/Users.sol",
  "compiler": {
    "name": "solc",
    "version": "0.8.11+commit.d7f03943.Emscripten.clang"
  },
  "schemaVersion": "3.4.4",
  "updatedAt": "2022-02-22T23:23:54.546Z",
  "devdoc": {
    "kind": "dev",
    "methods": {},
    "version": 1
  },
  "userdoc": {
    "kind": "user",
    "methods": {},
    "version": 1
  }
}