{
  "contractName": "Users",
  "abi": [
    {
      "inputs": [
        {
          "internalType": "uint256",
          "name": "",
          "type": "uint256"
        }
      ],
      "name": "app_users",
      "outputs": [
        {
          "internalType": "uint256",
          "name": "id",
          "type": "uint256"
        },
        {
          "internalType": "string",
          "name": "username",
          "type": "string"
        },
        {
          "internalType": "enum Users.Gender",
          "name": "gender",
          "type": "uint8"
        }
      ],
      "stateMutability": "view",
      "type": "function",
      "constant": true
    },
    {
      "inputs": [
        {
          "internalType": "string",
          "name": "_username",
          "type": "string"
        },
        {
          "internalType": "uint256",
          "name": "_gender",
          "type": "uint256"
        }
      ],
      "name": "setUpUser",
      "outputs": [],
      "stateMutability": "nonpayable",
      "type": "function"
    },
    {
      "inputs": [
        {
          "internalType": "uint256",
          "name": "_id",
          "type": "uint256"
        }
      ],
      "name": "getAppUser",
      "outputs": [
        {
          "components": [
            {
              "internalType": "uint256",
              "name": "id",
              "type": "uint256"
            },
            {
              "internalType": "string",
              "name": "username",
              "type": "string"
            },
            {
              "internalType": "enum Users.Gender",
              "name": "gender",
              "type": "uint8"
            }
          ],
          "internalType": "struct Users.AppUser",
          "name": "",
          "type": "tuple"
        }
      ],
      "stateMutability": "view",
      "type": "function",
      "constant": true
    }
  ],
  "bytecode": "0x608060405234801561001057600080fd5b50610a07806100206000396000f3fe608060405234801561001057600080fd5b50600436106100415760003560e01c8063021c1677146100465780634903b20f14610062578063752d2ef714610094575b600080fd5b610060600480360381019061005b919061060d565b6100c4565b005b61007c60048036038101906100779190610669565b6101c5565b60405161008b939291906107a4565b60405180910390f35b6100ae60048036038101906100a99190610669565b610294565b6040516100bb919061089a565b60405180910390f35b806002808111156100d8576100d761072d565b5b10156100e357600080fd5b6001604051806060016040528060005481526020018481526020018360028111156101115761011061072d565b5b60028111156101235761012261072d565b5b81525090806001815401808255809150506001900390600052602060002090600302016000909190919091506000820151816000015560208201518160010190805190602001906101759291906103a7565b5060408201518160020160006101000a81548160ff021916908360028111156101a1576101a061072d565b5b0217905550505060016000808282546101ba91906108eb565b925050819055505050565b600181815481106101d557600080fd5b90600052602060002090600302016000915090508060000154908060010180546101fe90610970565b80601f016020809104026020016040519081016040528092919081815260200182805461022a90610970565b80156102775780601f1061024c57610100808354040283529160200191610277565b820191906000526020600020905b81548152906001019060200180831161025a57829003601f168201915b5050505050908060020160009054906101000a900460ff16905083565b61029c61042d565b600182815481106102b0576102af6109a2565b5b9060005260206000209060030201604051806060016040529081600082015481526020016001820180546102e390610970565b80601f016020809104026020016040519081016040528092919081815260200182805461030f90610970565b801561035c5780601f106103315761010080835404028352916020019161035c565b820191906000526020600020905b81548152906001019060200180831161033f57829003601f168201915b505050505081526020016002820160009054906101000a900460ff16600281111561038a5761038961072d565b5b600281111561039c5761039b61072d565b5b815250509050919050565b8280546103b390610970565b90600052602060002090601f0160209004810192826103d5576000855561041c565b82601f106103ee57805160ff191683800117855561041c565b8280016001018555821561041c579182015b8281111561041b578251825591602001919060010190610400565b5b5090506104299190610460565b5090565b604051806060016040528060008152602001606081526020016000600281111561045a5761045961072d565b5b81525090565b5b80821115610479576000816000905550600101610461565b5090565b6000604051905090565b600080fd5b600080fd5b600080fd5b600080fd5b6000601f19601f8301169050919050565b7f4e487b7100000000000000000000000000000000000000000000000000000000600052604160045260246000fd5b6104e48261049b565b810181811067ffffffffffffffff82111715610503576105026104ac565b5b80604052505050565b600061051661047d565b905061052282826104db565b919050565b600067ffffffffffffffff821115610542576105416104ac565b5b61054b8261049b565b9050602081019050919050565b82818337600083830152505050565b600061057a61057584610527565b61050c565b90508281526020810184848401111561059657610595610496565b5b6105a1848285610558565b509392505050565b600082601f8301126105be576105bd610491565b5b81356105ce848260208601610567565b91505092915050565b6000819050919050565b6105ea816105d7565b81146105f557600080fd5b50565b600081359050610607816105e1565b92915050565b6000806040838503121561062457610623610487565b5b600083013567ffffffffffffffff8111156106425761064161048c565b5b61064e858286016105a9565b925050602061065f858286016105f8565b9150509250929050565b60006020828403121561067f5761067e610487565b5b600061068d848285016105f8565b91505092915050565b61069f816105d7565b82525050565b600081519050919050565b600082825260208201905092915050565b60005b838110156106df5780820151818401526020810190506106c4565b838111156106ee576000848401525b50505050565b60006106ff826106a5565b61070981856106b0565b93506107198185602086016106c1565b6107228161049b565b840191505092915050565b7f4e487b7100000000000000000000000000000000000000000000000000000000600052602160045260246000fd5b6003811061076d5761076c61072d565b5b50565b600081905061077e8261075c565b919050565b600061078e82610770565b9050919050565b61079e81610783565b82525050565b60006060820190506107b96000830186610696565b81810360208301526107cb81856106f4565b90506107da6040830184610795565b949350505050565b6107eb816105d7565b82525050565b600082825260208201905092915050565b600061080d826106a5565b61081781856107f1565b93506108278185602086016106c1565b6108308161049b565b840191505092915050565b61084481610783565b82525050565b600060608301600083015161086260008601826107e2565b506020830151848203602086015261087a8282610802565b915050604083015161088f604086018261083b565b508091505092915050565b600060208201905081810360008301526108b4818461084a565b905092915050565b7f4e487b7100000000000000000000000000000000000000000000000000000000600052601160045260246000fd5b60006108f6826105d7565b9150610901836105d7565b9250827fffffffffffffffffffffffffffffffffffffffffffffffffffffffffffffffff03821115610936576109356108bc565b5b828201905092915050565b7f4e487b7100000000000000000000000000000000000000000000000000000000600052602260045260246000fd5b6000600282049050600182168061098857607f821691505b6020821081141561099c5761099b610941565b5b50919050565b7f4e487b7100000000000000000000000000000000000000000000000000000000600052603260045260246000fdfea2646970667358221220278bfd9e21182dba1ada0076c8c23f68e2b6ff39c53818a3a73dd7bc8dea61ed64736f6c634300080b0033",
  "immutableReferences": {},
  "source": "// SPDX-License-Identifier: MIT\npragma solidity >=0.4.22 <0.9.0;\n\ncontract Users {\n\n  enum Gender { Male, Female, Other}\n\n    struct AppUser {\n        uint id;\n        string username;\n        Gender gender; // pass gender as unum\n    }\n\n    uint id_counter; // to increment user id\n\n    AppUser[] public app_users;\n\n    function setUpUser(string memory _username, uint _gender) public {\n      /* validate enum values are within range */\n        require(uint(Gender.Other) >= _gender);\n        app_users.push(AppUser(id_counter, _username, Gender(_gender)));\n        id_counter += 1;\n    }\n\n    function getAppUser(uint _id) public view returns(AppUser memory) {\n      return app_users[_id];\n    }\n\n\n}\n",
  "sourcePath": "/Users/kiburei/Development/web3/wekelea/contracts/Users.sol",
  "compiler": {
    "name": "solc",
    "version": "0.8.11+commit.d7f03943.Emscripten.clang"
  },
  "schemaVersion": "3.4.4",
  "updatedAt": "2022-02-24T21:49:01.095Z",
  "networkType": "ethereum",
  "devdoc": {
    "kind": "dev",
    "methods": {},
    "version": 1
  },
  "userdoc": {
    "kind": "user",
    "methods": {},
    "version": 1
  }
}