{
  "contractName": "Users",
  "abi": [
    {
      "inputs": [
        {
          "internalType": "uint256",
          "name": "",
          "type": "uint256"
        }
      ],
      "name": "app_users",
      "outputs": [
        {
          "internalType": "uint256",
          "name": "id",
          "type": "uint256"
        },
        {
          "internalType": "string",
          "name": "username",
          "type": "string"
        },
        {
          "internalType": "enum Users.Gender",
          "name": "gender",
          "type": "uint8"
        },
        {
          "internalType": "address",
          "name": "wallet",
          "type": "address"
        }
      ],
      "stateMutability": "view",
      "type": "function",
      "constant": true
    },
    {
      "inputs": [
        {
          "internalType": "string",
          "name": "_username",
          "type": "string"
        },
        {
          "internalType": "uint256",
          "name": "_gender",
          "type": "uint256"
        },
        {
          "internalType": "address",
          "name": "_wallet",
          "type": "address"
        }
      ],
      "name": "setUpUser",
      "outputs": [],
      "stateMutability": "nonpayable",
      "type": "function"
    },
    {
      "inputs": [
        {
          "internalType": "uint256",
          "name": "_id",
          "type": "uint256"
        }
      ],
      "name": "getAppUser",
      "outputs": [
        {
          "components": [
            {
              "internalType": "uint256",
              "name": "id",
              "type": "uint256"
            },
            {
              "internalType": "string",
              "name": "username",
              "type": "string"
            },
            {
              "internalType": "enum Users.Gender",
              "name": "gender",
              "type": "uint8"
            },
            {
              "internalType": "address",
              "name": "wallet",
              "type": "address"
            }
          ],
          "internalType": "struct Users.AppUser",
          "name": "",
          "type": "tuple"
        }
      ],
      "stateMutability": "view",
      "type": "function",
      "constant": true
    },
    {
      "inputs": [
        {
          "internalType": "uint256",
          "name": "_id",
          "type": "uint256"
        }
      ],
      "name": "getAppUserBalance",
      "outputs": [
        {
          "internalType": "uint256",
          "name": "",
          "type": "uint256"
        }
      ],
      "stateMutability": "view",
      "type": "function",
      "constant": true
    }
  ],
  "bytecode": "0x608060405234801561001057600080fd5b50610c43806100206000396000f3fe608060405234801561001057600080fd5b506004361061004c5760003560e01c806339c058c4146100515780634903b20f14610081578063752d2ef7146100b4578063fdccd40d146100e4575b600080fd5b61006b60048036038101906100669190610638565b610100565b6040516100789190610674565b60405180910390f35b61009b60048036038101906100969190610638565b610138565b6040516100ab94939291906107e0565b60405180910390f35b6100ce60048036038101906100c99190610638565b61022d565b6040516100db9190610906565b60405180910390f35b6100fe60048036038101906100f99190610a89565b610396565b005b60008061010c8361022d565b90506000816060015173ffffffffffffffffffffffffffffffffffffffff163190508092505050919050565b6001818154811061014857600080fd5b906000526020600020906003020160009150905080600001549080600101805461017190610b27565b80601f016020809104026020016040519081016040528092919081815260200182805461019d90610b27565b80156101ea5780601f106101bf576101008083540402835291602001916101ea565b820191906000526020600020905b8154815290600101906020018083116101cd57829003601f168201915b5050505050908060020160009054906101000a900460ff16908060020160019054906101000a900473ffffffffffffffffffffffffffffffffffffffff16905084565b6102356104fb565b6001828154811061024957610248610b59565b5b90600052602060002090600302016040518060800160405290816000820154815260200160018201805461027c90610b27565b80601f01602080910402602001604051908101604052809291908181526020018280546102a890610b27565b80156102f55780601f106102ca576101008083540402835291602001916102f5565b820191906000526020600020905b8154815290600101906020018083116102d857829003601f168201915b505050505081526020016002820160009054906101000a900460ff16600281111561032357610322610728565b5b600281111561033557610334610728565b5b81526020016002820160019054906101000a900473ffffffffffffffffffffffffffffffffffffffff1673ffffffffffffffffffffffffffffffffffffffff1673ffffffffffffffffffffffffffffffffffffffff16815250509050919050565b816002808111156103aa576103a9610728565b5b10156103b557600080fd5b6001604051806080016040528060005481526020018581526020018460028111156103e3576103e2610728565b5b60028111156103f5576103f4610728565b5b81526020018373ffffffffffffffffffffffffffffffffffffffff16815250908060018154018082558091505060019003906000526020600020906003020160009091909190915060008201518160000155602082015181600101908051906020019061046392919061054b565b5060408201518160020160006101000a81548160ff0219169083600281111561048f5761048e610728565b5b021790555060608201518160020160016101000a81548173ffffffffffffffffffffffffffffffffffffffff021916908373ffffffffffffffffffffffffffffffffffffffff160217905550505060016000808282546104ef9190610bb7565b92505081905550505050565b604051806080016040528060008152602001606081526020016000600281111561052857610527610728565b5b8152602001600073ffffffffffffffffffffffffffffffffffffffff1681525090565b82805461055790610b27565b90600052602060002090601f01602090048101928261057957600085556105c0565b82601f1061059257805160ff19168380011785556105c0565b828001600101855582156105c0579182015b828111156105bf5782518255916020019190600101906105a4565b5b5090506105cd91906105d1565b5090565b5b808211156105ea5760008160009055506001016105d2565b5090565b6000604051905090565b600080fd5b600080fd5b6000819050919050565b61061581610602565b811461062057600080fd5b50565b6000813590506106328161060c565b92915050565b60006020828403121561064e5761064d6105f8565b5b600061065c84828501610623565b91505092915050565b61066e81610602565b82525050565b60006020820190506106896000830184610665565b92915050565b600081519050919050565b600082825260208201905092915050565b60005b838110156106c95780820151818401526020810190506106ae565b838111156106d8576000848401525b50505050565b6000601f19601f8301169050919050565b60006106fa8261068f565b610704818561069a565b93506107148185602086016106ab565b61071d816106de565b840191505092915050565b7f4e487b7100000000000000000000000000000000000000000000000000000000600052602160045260246000fd5b6003811061076857610767610728565b5b50565b600081905061077982610757565b919050565b60006107898261076b565b9050919050565b6107998161077e565b82525050565b600073ffffffffffffffffffffffffffffffffffffffff82169050919050565b60006107ca8261079f565b9050919050565b6107da816107bf565b82525050565b60006080820190506107f56000830187610665565b818103602083015261080781866106ef565b90506108166040830185610790565b61082360608301846107d1565b95945050505050565b61083581610602565b82525050565b600082825260208201905092915050565b60006108578261068f565b610861818561083b565b93506108718185602086016106ab565b61087a816106de565b840191505092915050565b61088e8161077e565b82525050565b61089d816107bf565b82525050565b60006080830160008301516108bb600086018261082c565b50602083015184820360208601526108d3828261084c565b91505060408301516108e86040860182610885565b5060608301516108fb6060860182610894565b508091505092915050565b6000602082019050818103600083015261092081846108a3565b905092915050565b600080fd5b600080fd5b7f4e487b7100000000000000000000000000000000000000000000000000000000600052604160045260246000fd5b61096a826106de565b810181811067ffffffffffffffff8211171561098957610988610932565b5b80604052505050565b600061099c6105ee565b90506109a88282610961565b919050565b600067ffffffffffffffff8211156109c8576109c7610932565b5b6109d1826106de565b9050602081019050919050565b82818337600083830152505050565b6000610a006109fb846109ad565b610992565b905082815260208101848484011115610a1c57610a1b61092d565b5b610a278482856109de565b509392505050565b600082601f830112610a4457610a43610928565b5b8135610a548482602086016109ed565b91505092915050565b610a66816107bf565b8114610a7157600080fd5b50565b600081359050610a8381610a5d565b92915050565b600080600060608486031215610aa257610aa16105f8565b5b600084013567ffffffffffffffff811115610ac057610abf6105fd565b5b610acc86828701610a2f565b9350506020610add86828701610623565b9250506040610aee86828701610a74565b9150509250925092565b7f4e487b7100000000000000000000000000000000000000000000000000000000600052602260045260246000fd5b60006002820490506001821680610b3f57607f821691505b60208210811415610b5357610b52610af8565b5b50919050565b7f4e487b7100000000000000000000000000000000000000000000000000000000600052603260045260246000fd5b7f4e487b7100000000000000000000000000000000000000000000000000000000600052601160045260246000fd5b6000610bc282610602565b9150610bcd83610602565b9250827fffffffffffffffffffffffffffffffffffffffffffffffffffffffffffffffff03821115610c0257610c01610b88565b5b82820190509291505056fea2646970667358221220dc0c80cb3bf54a25feb6973741739155ad107fd3ba3b629ddf073eed72766f5a64736f6c634300080b0033",
  "immutableReferences": {},
  "source": "// SPDX-License-Identifier: MIT\npragma solidity >=0.4.22 <0.9.0;\n\ncontract Users {\n\n  enum Gender { Male, Female, Other}\n\n    struct AppUser {\n        uint id;\n        string username;\n        Gender gender; // pass gender as unum\n        address wallet;\n    }\n\n    uint id_counter; // to increment user id\n\n    AppUser[] public app_users;\n\n    function setUpUser(string memory _username, uint _gender, address _wallet) public {\n      /* validate enum values are within range */\n        require(uint(Gender.Other) >= _gender);\n        app_users.push(AppUser(id_counter, _username, Gender(_gender), _wallet));\n        id_counter += 1;\n    }\n\n    function getAppUser(uint _id) public view returns(AppUser memory) {\n      return app_users[_id];\n    }\n\n    function getAppUserBalance(uint _id) public view returns(uint) {\n      AppUser memory user = getAppUser(_id);\n      /* get wallet balance */\n      uint balance = user.wallet.balance;\n      return balance;\n    }\n\n\n}\n",
  "sourcePath": "/Users/kiburei/Development/web3/wekelea/contracts/Users.sol",
  "compiler": {
    "name": "solc",
    "version": "0.8.11+commit.d7f03943.Emscripten.clang"
  },
  "schemaVersion": "3.4.4",
  "updatedAt": "2022-03-05T12:16:39.610Z",
  "networkType": "ethereum",
  "devdoc": {
    "kind": "dev",
    "methods": {},
    "version": 1
  },
  "userdoc": {
    "kind": "user",
    "methods": {},
    "version": 1
  }
}