{
  "contractName": "Users",
  "abi": [
    {
      "inputs": [],
      "name": "app_user",
      "outputs": [
        {
          "internalType": "string",
          "name": "first_name",
          "type": "string"
        },
        {
          "internalType": "string",
          "name": "last_name",
          "type": "string"
        },
        {
          "internalType": "string",
          "name": "username",
          "type": "string"
        },
        {
          "internalType": "enum Users.Gender",
          "name": "gender",
          "type": "uint8"
        }
      ],
      "stateMutability": "view",
      "type": "function",
      "constant": true
    },
    {
      "inputs": [
        {
          "internalType": "string",
          "name": "_first_name",
          "type": "string"
        },
        {
          "internalType": "string",
          "name": "_last_name",
          "type": "string"
        },
        {
          "internalType": "string",
          "name": "_username",
          "type": "string"
        },
        {
          "internalType": "uint8",
          "name": "_gender",
          "type": "uint8"
        }
      ],
      "name": "setUpUser",
      "outputs": [],
      "stateMutability": "nonpayable",
      "type": "function"
    },
    {
      "inputs": [],
      "name": "getAppUser",
      "outputs": [
        {
          "components": [
            {
              "internalType": "string",
              "name": "first_name",
              "type": "string"
            },
            {
              "internalType": "string",
              "name": "last_name",
              "type": "string"
            },
            {
              "internalType": "string",
              "name": "username",
              "type": "string"
            },
            {
              "internalType": "enum Users.Gender",
              "name": "gender",
              "type": "uint8"
            }
          ],
          "internalType": "struct Users.AppUser",
          "name": "",
          "type": "tuple"
        }
      ],
      "stateMutability": "view",
      "type": "function",
      "constant": true
    }
  ],
  "bytecode": "0x608060405234801561001057600080fd5b50610b4f806100206000396000f3fe608060405234801561001057600080fd5b50600436106100415760003560e01c806359246d6114610046578063805eeab714610067578063a6355c6214610085575b600080fd5b61004e6100a1565b60405161005e9493929190610735565b60405180910390f35b61006f610264565b60405161007c9190610859565b60405180910390f35b61009f600480360381019061009a91906109fd565b61046f565b005b60008060000180546100b290610ae7565b80601f01602080910402602001604051908101604052809291908181526020018280546100de90610ae7565b801561012b5780601f106101005761010080835404028352916020019161012b565b820191906000526020600020905b81548152906001019060200180831161010e57829003601f168201915b50505050509080600101805461014090610ae7565b80601f016020809104026020016040519081016040528092919081815260200182805461016c90610ae7565b80156101b95780601f1061018e576101008083540402835291602001916101b9565b820191906000526020600020905b81548152906001019060200180831161019c57829003601f168201915b5050505050908060020180546101ce90610ae7565b80601f01602080910402602001604051908101604052809291908181526020018280546101fa90610ae7565b80156102475780601f1061021c57610100808354040283529160200191610247565b820191906000526020600020905b81548152906001019060200180831161022a57829003601f168201915b5050505050908060030160009054906101000a900460ff16905084565b61026c610548565b600060405180608001604052908160008201805461028990610ae7565b80601f01602080910402602001604051908101604052809291908181526020018280546102b590610ae7565b80156103025780601f106102d757610100808354040283529160200191610302565b820191906000526020600020905b8154815290600101906020018083116102e557829003601f168201915b5050505050815260200160018201805461031b90610ae7565b80601f016020809104026020016040519081016040528092919081815260200182805461034790610ae7565b80156103945780601f1061036957610100808354040283529160200191610394565b820191906000526020600020905b81548152906001019060200180831161037757829003601f168201915b505050505081526020016002820180546103ad90610ae7565b80601f01602080910402602001604051908101604052809291908181526020018280546103d990610ae7565b80156104265780601f106103fb57610100808354040283529160200191610426565b820191906000526020600020905b81548152906001019060200180831161040957829003601f168201915b505050505081526020016003820160009054906101000a900460ff166002811115610454576104536106be565b5b6002811115610466576104656106be565b5b81525050905090565b60405180608001604052808581526020018481526020018381526020018260ff1660028111156104a2576104a16106be565b5b60028111156104b4576104b36106be565b5b8152506000808201518160000190805190602001906104d4929190610582565b5060208201518160010190805190602001906104f1929190610582565b50604082015181600201908051906020019061050e929190610582565b5060608201518160030160006101000a81548160ff0219169083600281111561053a576105396106be565b5b021790555090505050505050565b60405180608001604052806060815260200160608152602001606081526020016000600281111561057c5761057b6106be565b5b81525090565b82805461058e90610ae7565b90600052602060002090601f0160209004810192826105b057600085556105f7565b82601f106105c957805160ff19168380011785556105f7565b828001600101855582156105f7579182015b828111156105f65782518255916020019190600101906105db565b5b5090506106049190610608565b5090565b5b80821115610621576000816000905550600101610609565b5090565b600081519050919050565b600082825260208201905092915050565b60005b8381101561065f578082015181840152602081019050610644565b8381111561066e576000848401525b50505050565b6000601f19601f8301169050919050565b600061069082610625565b61069a8185610630565b93506106aa818560208601610641565b6106b381610674565b840191505092915050565b7f4e487b7100000000000000000000000000000000000000000000000000000000600052602160045260246000fd5b600381106106fe576106fd6106be565b5b50565b600081905061070f826106ed565b919050565b600061071f82610701565b9050919050565b61072f81610714565b82525050565b6000608082019050818103600083015261074f8187610685565b905081810360208301526107638186610685565b905081810360408301526107778185610685565b90506107866060830184610726565b95945050505050565b600082825260208201905092915050565b60006107ab82610625565b6107b5818561078f565b93506107c5818560208601610641565b6107ce81610674565b840191505092915050565b6107e281610714565b82525050565b6000608083016000830151848203600086015261080582826107a0565b9150506020830151848203602086015261081f82826107a0565b9150506040830151848203604086015261083982826107a0565b915050606083015161084e60608601826107d9565b508091505092915050565b6000602082019050818103600083015261087381846107e8565b905092915050565b6000604051905090565b600080fd5b600080fd5b600080fd5b600080fd5b7f4e487b7100000000000000000000000000000000000000000000000000000000600052604160045260246000fd5b6108d182610674565b810181811067ffffffffffffffff821117156108f0576108ef610899565b5b80604052505050565b600061090361087b565b905061090f82826108c8565b919050565b600067ffffffffffffffff82111561092f5761092e610899565b5b61093882610674565b9050602081019050919050565b82818337600083830152505050565b600061096761096284610914565b6108f9565b90508281526020810184848401111561098357610982610894565b5b61098e848285610945565b509392505050565b600082601f8301126109ab576109aa61088f565b5b81356109bb848260208601610954565b91505092915050565b600060ff82169050919050565b6109da816109c4565b81146109e557600080fd5b50565b6000813590506109f7816109d1565b92915050565b60008060008060808587031215610a1757610a16610885565b5b600085013567ffffffffffffffff811115610a3557610a3461088a565b5b610a4187828801610996565b945050602085013567ffffffffffffffff811115610a6257610a6161088a565b5b610a6e87828801610996565b935050604085013567ffffffffffffffff811115610a8f57610a8e61088a565b5b610a9b87828801610996565b9250506060610aac878288016109e8565b91505092959194509250565b7f4e487b7100000000000000000000000000000000000000000000000000000000600052602260045260246000fd5b60006002820490506001821680610aff57607f821691505b60208210811415610b1357610b12610ab8565b5b5091905056fea264697066735822122053592aa69550ae8273fe0a60d4d425ce2d00370138b60a8a1433809a2fd02f2b64736f6c634300080b0033",
  "immutableReferences": {},
  "source": "// SPDX-License-Identifier: MIT\npragma solidity >=0.4.22 <0.9.0;\n\ncontract Users {\n\n  enum Gender { Male, Female, Other}\n\n    struct AppUser {\n        string first_name;\n        string last_name;\n        string username;\n        Gender gender;\n    }\n\n    AppUser public app_user;\n\n    function setUpUser(string memory _first_name, string memory _last_name, string memory _username, uint8 _gender) public {\n        app_user = AppUser(_first_name, _last_name, _username, Gender(_gender));\n    }\n\n    function getAppUser() public view returns(AppUser memory) {\n      return app_user;\n    }\n\n}\n",
  "sourcePath": "/Users/kiburei/Development/web3/wekelea/contracts/Users.sol",
  "compiler": {
    "name": "solc",
    "version": "0.8.11+commit.d7f03943.Emscripten.clang"
  },
  "schemaVersion": "3.4.4",
  "updatedAt": "2022-02-24T21:01:56.576Z",
  "networkType": "ethereum",
  "devdoc": {
    "kind": "dev",
    "methods": {},
    "version": 1
  },
  "userdoc": {
    "kind": "user",
    "methods": {},
    "version": 1
  }
}